:060000000A128A11122809
:10000800FE00030E83120313C8000408C9000A087F
:10001800CA007F08CB000A128A1125280A128A1101
:10002800152883136030FD000A30FE00CA30FF0037
:10003800563084000A128A15E82283010A128A15AA
:10004800502B0B1D6E28CB300A128A15B6220A12C5
:100058008A11003083120313B0000030B1000A1275
:100068008A11F3230A128A11831203133008B70086
:100078003108B8003208B9000630C5004508BA0092
:100088004C300A128A11E0210A128A114C30F3000E
:100098000030F4000430F5000030F6000A128A152A
:1000A800C5250A128A110B30F3008030F4000230A3
:1000B800F5000030F6000A128A15C5250A128A11C1
:1000C800831203135E08803E0A128A15B7230A12A8
:1000D8008A110B1183120313861AD428023059028D
:1000E800031D80289F305802031D80286330570263
:1000F800031D8028013056020318D4285A08D60751
:100108005B0803110318013E031DD7075C080311A0
:100118000318013E031DD8075D0803110318013EAB
:10012800031DD9075908C4005808C3005708C2005E
:100138005608C1000A128A1173270A128A110A1274
:100148008A15A4220A128A11831203135908A300DC
:100158005808A2005708A1005608A0004C300A12FF
:100168008A1594270A128A114C30F3000030F400E3
:100178000A30F5000030F6000A128A15C5250A1261
:100188008A11063083120313C7001330C600B1303A
:10019800C500C50BCD28C60BCD28C70BCD28D42844
:1001A80083120313061A34295D085902031DE62831
:1001B8005C085802031DE6285B085702031DE62861
:1001C8005A085602031C34295A08D6025B08031C35
:1001D8005B0FD7025C08031C5C0FD8025D08031C88
:1001E8005D0FD9025908C4005808C3005708C20057
:1001F8005608C1000A128A1173270A128A110A12B4
:100208008A15A4220A128A11831203135908A3001B
:100218005808A2005708A1005608A0004C300A123E
:100228008A1594270A128A114C30F3000030F40022
:100238000A30F5000030F6000A128A15C5250A12A0
:100248008A11063083120313C7001330C600B13079
:10025800C500C50B2D29C60B2D29C70B2D293429FF
:1002680083120313861D8229D3290030DD00003054
:10027800DC000030DB000A30DA0008307E2900306C
:10028800DD000030DC000030DB006430DA000730CD
:100298007E290030DD000030DC000330DB00E83070
:1002A800DA0005307E290030DD000030DC00273020
:1002B800DB001030DA0004307E290030DD00013028
:1002C800DC008630DB00A030DA0003307E29003005
:1002D800DD000F30DC004230DB004030DA00013056
:1002E8007E290030DD000030DC000030DB0001300A
:1002F800DA000930DE000030DF00C6295D08003A68
:100308000319BB2975295B08003A03199229033A96
:1003180003199D29243A0319A22975295A08013A73
:10032800031939290B3A031943296E3A03194D2940
:1003380075295A08E83A0319572975295A08103AAD
:100348000319612975295B08863A0319AC297529AF
:100358005A08A03A03196B2975295B08423A031910
:10036800B62975295A08403A0319752975295C0870
:10037800003A03198729013A0319A7290E3A0319E4
:10038800B12975291A30C7005E30C6008630C5000D
:10039800C50BCC29C60BCC29C70BCC29000083126E
:1003A80003134B08FF004A088A0049088400480ED6
:1003B8008300FE0E7E0E090083120313C100C201E2
:1003C8003708F0003808F1003908F2000A128A11DB
:1003D80069260A128A11710883120313C401C4071B
:1003E8007008C301C3074408F901F9074308F80175
:1003F800F8070A30FA000030FB0041080A128A1197
:10040800F5260A128A11831203133708F0003808F8
:10041800F1003908F2000030F3000030F400003039
:10042800F5000A128A1571260A128A1103184E2A33
:10043800003083120313A0008030A100BF30A20057
:100448003708A3003808A4003908A5000A128A1141
:10045800E0240A128A11831203132008B700210826
:10046800B8002208B900FF30F000FF30F10044085E
:10047800F301F3074308F201F2070A128A15712300
:100488000A128A11710883120313C401C407700881
:10049800C301C3078312031341080A128A15DC2318
:1004A8000A128A11700883120313BB003B08C000AC
:1004B8004008BB003B08C2002E30BB004208410781
:1004C800BC003C0884003B08831380000130BB005B
:1004D8003B08C2073A084007BB00BC01BC0D3B08FB
:1004E800013EBD003C080318013E003EBE003E0828
:1004F800803A803C031D822A3D0842020318080006
:10050800831203133708A1003808A2003908A30092
:100518004408FC01FC074308FB01FB070A128A1583
:1005280019230A128A117B08F8007C08F9007D0853
:10053800FA000A128A1594220A128A11780883127C
:100548000313A4007908A5007A08A6000A128A11E4
:10055800EA220A128A11831203132108B70022081B
:10056800B8002308B9000030A0002030A1004130B5
:10057800A2003708A3003808A4003908A5000A1209
:100588008A11E0240A128A11831203132008B70083
:100598002108B8002208B9003708F0003808F1002F
:1005A8003908F2000A128A1169260A128A1171089A
:1005B80083120313C401C4077008C301C3074308A7
:1005C800303EBB003B08BF003F08612A831203137B
:1005D8002108A7002208A8002308A9000310280D55
:1005E800290DAA002A08AD002408A7002508A8009C
:1005F8002608A9000310280D290DAA002A08AC0016
:100608002D080319132B2C082D0203181A2B2D0360
:10061800FF3A2C07A70019302702031C1A2B2408BD
:10062800A1002508A2002608A30008002C08031929
:1006380008002D082C020318292B2C03FF3A2D073C
:10064800A70019302702031808000630A70027085A
:10065800AB00A31BAB17A61B2B17A217FF30A105D6
:10066800FF30A2050030A305A517FF30A405FF3011
:10067800A5050030A6052C082D020318692B0130AA
:100688000310A40DA50DA60DFF3E031D442B01303C
:10069800AC022C082D060319642B0130AB022B0881
:1006A80007390319642B432B01300310A30CA20C48
:1006B800A10CFF3E031D592B0130A7002708AD07E9
:1006C8002D082C060319922B582B2D082C020318E1
:1006D800922B01300310A10DA20DA30DFF3E031DA7
:1006E8006E2B0130AD022C082D0603198E2B01301C
:1006F800AB022B08073903198E2B6D2B0130031021
:10070800A60CA50CA40CFF3E031D832B0130A700EB
:100718002708AC072D082C06031D822BAB1FA42B22
:10072800FF30A106FF30A206FF30A3060130A10763
:10073800003003180130A207003003180130A30766
:100748002B1FB62BFF30A406FF30A506FF30A606E8
:100758000130A407003003180130A5070030031842
:100768000130A607AB012108A407220803110318CA
:10077800220A031DA507230803110318230A031DD2
:10078800A607A61FD92BFF30A406FF30A506FF3009
:10079800A6060130A407003003180130A507003071
:1007A80003180130A607AB01AB0A2408F00025089E
:1007B800F1002608F2002D08A7002708F3002B08EF
:1007C800A8002808F4000A128A152C27700883123A
:1007D8000313A1007108A2007208A3000800831285
:1007E80003133108F101F1073008F001F0070A128C
:1007F8008A152D240A128A117108F901F90770085F
:10080800F801F8070A128A152F230A128A117808A4
:1008180083120313B4007908B5007A08B600F930DA
:10082800B3000000B30B152C192C0000831203131E
:100838003108F101F1073008F001F0070A128A15B2
:100848002D240A128A117108F901F9077008F801B4
:10085800F8070A128A152F230A128A1178088312B8
:100868000313A1007908A2007A08A3003408A400A1
:100878003508A5003608A6000A128A11EA220A12CB
:100888008A11831203132108B4002208B500230833
:10089800B600F930B3000000B30B4F2C532C000006
:1008A800831203133108F101F1073008F001F00752
:1008B8000A128A152D240A128A117108F901F907FA
:1008C8007008F801F8070A128A152F230A128A11EC
:1008D800780883120313A1007908A2007A08A300FC
:1008E8003408A4003508A5003608A6000A128A11A3
:1008F800EA220A128A11831203132108B40022087B
:10090800B5002308B600F930B3000000B30B892CFA
:100918008D2C00000030F8004030F9004030FA001B
:10092800831203133408FB003508FC003608FD0069
:100938000A128A11B3250A128A117808831203133E
:10094800B4007908B5007A08B6000030A000A030DD
:10095800A1004030A2003408A3003508A4003608DE
:10096800A5000A128A11E0240A128A1183120313BD
:100978002008B4002108B5002208B6000030F800AD
:100988008030F9004430FA003408FB003508FC00D8
:100998003608FD000A128A11B3257808831203135A
:1009A800B4007908B5007A08B6003408B0003508F4
:1009B800B1003608B2000800831203132008A6000D
:1009C8002108A7002208A8000310270D280DA90058
:1009D8002908AA00AA08031DF82C0030A00000303E
:1009E800A1000030A20008002308A6002408A700E0
:1009F8002508A8000310270D280DA9002908AF0015
:100A0800AF08031D0E2D0030A0000030A1000030FB
:100A1800A20008002F087B3EA6002608AA07200887
:100A2800A6002108A7002208A80010300310A80C6F
:100A3800A70CA60CFF3E031D1A2D2608A90029089D
:100A4800AF002308A6002408A7002508A800103036
:100A58000310A80CA70CA60CFF3E031D2C2D26087E
:100A6800A9002908AF068030A6002608AF05A117FF
:100A7800A417FF30A305FF30A4050030A5050030FA
:100A8800AB000030AC000030AD000730A6002608EF
:100A9800AE00201C5D2D2308AB07240803110318A2
:100AA800240A031DAC07250803110318250A031D92
:100AB800AD0701300310A20CA10CA00CFF3E031DD2
:100AC8005E2D01300310A30DA40DA50DFF3E031DDF
:100AD800662D0130AE02031D4D2D0930A6002608F3
:100AE800AE00201C852D2308AB072408031103182A
:100AF800240A031DAC07250803110318250A031D42
:100B0800AD0701300310A20CA10CA00CFF3E031D81
:100B1800862D01300310AD0CAC0CAB0CFF3E031D51
:100B28008E2D0130AE02031D752D2B08F0002C0808
:100B3800F1002D08F2002A08A6002608F3002F0865
:100B4800A7002708F4000A128A152C2770088312B8
:100B58000313A0007108A1007208A20008007B0816
:100B680083120313A0007C08A1007D08A2000310D3
:100B7800210D220DA3002308A800A808031DCB2DD2
:100B88000030F8000030F9000030FA00080078085A
:100B9800A0007908A1007A08A2000310210D220DF7
:100BA800A3002308A900A908031DE12D0030F800BF
:100BB8000030F9000030FA0008000030A5000030CD
:100BC800A6000030A70089302907A0002008A80245
:100BD8007B08A0007C08A1007D08A200103003104B
:100BE800A20CA10CA00CFF3E031DF32D2008A300AE
:100BF8002308A9007808A0007908A1007A08A200B3
:100C080010300310A20CA10CA00CFF3E031D052EF2
:100C18002008A3002308A9068030A0002008A90501
:100C2800FC17FF30FB05FF30FC050030FD05F91708
:100C3800FF30F805FF30F9050030FA051830A0003C
:100C48002008A40001300310A50DA60DA70DFF3E36
:100C5800031D272E7A087D02031D382E79087C0291
:100C6800031D382E78087B02031C452E7808FB02EA
:100C78007908031C790FFC027A08031C7A0AFD0222
:100C8800251401300310FB0DFC0DFD0DFF3E031D67
:100C9800462E0130A402031D262E2508F000260842
:100CA800F1002708F2002808A0002008F30029080E
:100CB800A1002108F4000A128A152C277008F800F0
:100CC8007108F9007208FA0008007008F400710849
:100CD800F5007208F6000310750D760DF700770819
:100CE800FD00FD08031D812E0030F3000030F200E6
:100CF8000030F1000030F00008007008F4007108BE
:100D0800F5007208F60017300310F60CF50CF40C19
:100D1800FF3E031D882E7408F7007708F800F117C6
:100D2800FF30F005FF30F1050030F2057008F900DA
:100D38007108FA007208FB00FC018E30FD02FD1FED
:100D4800C32E7D08803A8F3E0318B32E0030F3007F
:100D58000030F2000030F1000030F00008000130EF
:100D68000310FC0CFB0CFA0CF90CFF3E031DB42E0F
:100D78000130F4007408FD070319DE2EB32E183075
:100D88007D02031CDB2E0030F3000030F20000303F
:100D9800F1000030F00008000130F4000310F90DF4
:100DA800FA0DFB0DFC0DF40BD22E0130FD02FD08EF
:100DB800031DD02E78080319EC2EF909FA09FB094E
:100DC800FC09F90A0319FA0A0319FB0A0319FC0AB0
:100DD8007C08F3007B08F2007A08F1007908F0003B
:100DE800080083120313A3007908A101A10778085A
:100DF800A001A0077B08F101F1077A08F001F007CC
:100E08002108F301F3072008F201F2070A128A15F4
:100E1800BF240A128A11710883120313A101A107C2
:100E28007008A001A0070130FC007C08A307210876
:100E38002004031DFE2E2308840083138001013043
:100E4800A3027B08F101F1077A08F001F00779089D
:100E5800F301F3077808F201F2070A128A158B24C6
:100E68000A128A117008FC007C0883120313A2007E
:100E78007B08F101F1077A08F001F0077908F3011E
:100E8800F3077808F201F2070A128A15BF240A123A
:100E98008A117108F901F9077008F801F8070A3092
:100EA800831203132202031C5D2F0730FC007C0809
:100EB800A2073030FC007C08A2072208FC002308A7
:100EC80084007C08831380000130A3027908780429
:100ED800031D252F0130FC007C08A30708000A1217
:100EE8008A158F220A128A11831203134408B30049
:100EF8004308B2004208B1004108B0000A128A153E
:100F08003B250A128A11831203133308BA003208E8
:100F1800B9003108B8003008B7000A128A15FD2454
:100F28000A128A110030F0000030F1000A128A110A
:100F3800E2270A128A110030F0000030F1000A128C
:100F48008A11E2270A128A110030F0000030F100FD
:100F58000A128A11E2270A128A110030F0000030C2
:100F6800F1000A128A11E2270A128A110030F000F1
:100F78000030F1000A128A11E2270A128A110030A1
:100F8800F0000030F1000A128A11E2270A128A11D1
:100F98000030F0000030F1000A128A11E2270A122C
:100FA8008A110030F0000030F1000A128A11E2279D
:100FB8000A128A110A128A158F220800701CE82F5B
:100FC800831203130615EB2F831203130611F9304E
:100FD800F2000000F20BED2FF12F00008312031333
:100FE800061406100611F930F2000000F20BF92F72
:060FF800FD2F00000800BF
:10100000FF1B0A2883137F1883170008840A03191B
:10101000FF0A080008308A000408840A82070034A6
:101020003034313432343334343435343634373484
:08103000383439345634003421
:10151E00831203138614861008007A08790478045F
:10152E00031908008030FA060800073083160313EB
:10153E008100831203138101080083120313061323
:10154E00803087000A128A15D422080083120313F2
:10155E000613803087000A128A15F5220800F20061
:10156E00831203130613720887000A128A15D422F7
:10157E000800F200831203130617720887000A127E
:10158E008A15D422080080349F34D53400340134B7
:10159E0000340034003409340034831203138617E8
:1015AE000330F1009730F000F00BDB2AF10BDB2A51
:1015BE00E02A83120313861308007E088A007F0830
:1015CE008200E4220A128A158000840A04087D062D
:1015DE0003190034FF0A0319FE0AE82A83120313C3
:1015EE008617033083160313A1009730A000A00BBB
:1015FE00FE2AA10BFE2A032B831203138613080067
:10160E00831603139F17F0309F05831203131F08D1
:10161E003F3980389F00831603131F17831203135D
:10162E001F1408007B08F0007C08F100F2018E30D8
:10163E0083120313A0002008F300F4010A128A1586
:10164E002C277008FB007108FC007208FD000800D2
:10165E00FD01F91F392BF809F909F80A0319F90ADE
:10166E00FD01FD0A7808F0007908F100F2018E30D4
:10167E00FB007B08F3007D08FC007C08F4000A12D6
:10168E008A152C277008F8007108F9007208FA0004
:10169E0008000A128A1507230A128A150A128A15D9
:1016AE0059240A128A150A128A159C220A128A15C0
:1016BE000A128A15AD220A128A150A128A151726DF
:1016CE000A128A15A8308B00831603138616061687
:1016DE008615702BF401F501701C7B2B7208F40734
:1016EE000318F50A7308F50701300310F20DF30D18
:1016FE00FF3E031D7C2B01300310F10CF00CFF3E5E
:10170E00031D832B71087004031D732B7508F101E3
:10171E00F1077408F001F007080083160313201C6C
:10172E009C2B8312031306159F2B83120313061192
:10173E00F93083160313A2000000A20BA32BA72BD4
:10174E00000083120313061406100611F9308316D7
:10175E000313A2000000A20BB12BB52B0000080052
:10176E00F400831203130613740887000A128A15F5
:10177E00D4220A128A150F308312031387000A121D
:10178E008A15D4220A128A158230F300DD30F20057
:10179E00F20BCF2BF30BCF2BD42B0C308312031366
:1017AE0087000A128A15D4220800F6007608F20085
:1017BE007208F70077088400831380080319EC2B56
:1017CE000130F2007208F707E12B7608F2000030C4
:1017DE00F300F209F309F20A0319F30A7708F40089
:1017EE000030F50072087407F00073080318730ACE
:1017FE007507F10008008E30FC007C08FD00FF30FC
:10180E007B050319182C01300310FB0CFA0CF90C94
:10181E00F80CFF3E031D0B2C0130FC007C08FD076D
:10182E00062C7808F0007908F1007A08F2007D089D
:10183E00FC007C08F300F4010A128A152C277008AC
:10184E00F8007108F9007208FA0008007108803A71
:10185E00FF0080307F02031D362C08307002031CFF
:10186E003B2CF001F10108007008F200F20DF20DB0
:10187E00F20D831203131F087206C73972069F00FA
:10188E002130F200F20B492C831203131F151F197E
:10189E004E2C1E08F101F107831603131E08F001EA
:1018AE00F0070800831603138701061386138312AD
:1018BE0003130613383087000A128A15F5220A120E
:1018CE008A150C308312031387000A128A15F5222B
:1018DE000A128A1501308312031387000A128A1521
:1018EE00F5220A128A1506308312031387000A1294
:1018FE008A15F5220A128A15803083120313870087
:10190E000A128A15F5220800710870040319B82C02
:10191E00F501F50AF11B9F2C01300310F00DF10DAE
:10192E00FF3E031D942C0130F4007408F507912C32
:10193E0071087302031DA52C70087202031CAD2CD6
:10194E007008F2027108031CF303F3020130031056
:10195E00F10CF00CFF3E031DAE2C0130F502031D01
:10196E009F2C7308F101F1077208F001F0070800CF
:10197E00F501F601710870040319F62CF701F70A48
:10198E00F11BD52C01300310F00DF10DFF3E031DA0
:10199E00CA2C0130F4007408F707C72C013003106D
:1019AE00F50DF60DFF3E031DD62C71087302031DB7
:1019BE00E22C70087202031CEB2C7008F202710804
:1019CE00031CF303F302751401300310F10CF00C39
:1019DE00FF3E031DEC2C0130F702031DD52C7608BB
:1019EE00F101F1077508F001F007080083120313E7
:1019FE00BF01C0014008803AFF0080307F02031D06
:101A0E000A2D20303F020318080001308312031301
:101A1E003705F00000303805F1000A128A11E2276E
:101A2E000A128A15831203133708BB003808BC004C
:101A3E003908BD003A08BE0001300310BE0CBD0CC3
:101A4E00BC0CBB0CFF3E031D242D3E08BA003D0806
:101A5E00B9003C08B8003B08B7000130BF070318B7
:101A6E00C00A0030C007012D713083120313A0008D
:101A7E000930A1004230A2003308FB003208FA0000
:101A8E003108F9003008F8000A128A1502240A12E9
:101A9E008A15780883120313A3007908A4007A0824
:101AAE00A5000A128A11E0240A128A158312031362
:101ABE002008B4002108B5002208B6003408F00052
:101ACE003508F1003608F2000A128A1169267308E9
:101ADE0083120313B3007208B2007108B1007008CC
:101AEE00B000080073087204710470040319BC2D51
:101AFE00F901F90AF31B912D0130F8000310F00DD6
:101B0E00F10DF20DF30DF80B852D0130F80078086C
:101B1E00F907812D73087702031D9F2D7208760237
:101B2E00031D9F2D71087502031D9F2D70087402F1
:101B3E00031CAF2D7008F4027108031C710FF5021F
:101B4E007208031C720FF6027308031C730FF70260
:101B5E0001300310F30CF20CF10CF00CFF3E031DE0
:101B6E00B02D0130F902031D912D7708F300760890
:101B7E00F2007508F1007408F0000800F801F90190
:101B8E007908803AF7007608803A7702031DD12D46
:101B9E007508780203180A2E7808730784007408F3
:101BAE000318740A83120313FF000A128A15002009
:101BBE000A128A15003803190A2E78087307840052
:101BCE0074080318740A83120313FF000A128A158D
:101BDE0000200A128A150A128A15C0220A128A15C4
:101BEE000130F8070318F90A0030F907C72D013044
:101BFE00F8070318F90A0030F90720300A128A157F
:101C0E00C0220A128A157908803AF7007608803ABF
:101C1E007702031D142E7508780203180800FE2D96
:101C2E00831603130610861006110030A000003034
:101C3E00A1000A128A1594230A128A1500308316FF
:101C4E000313A0000030A1000A128A1594230A1271
:101C5E008A15003083160313A0000030A1000A126B
:101C6E008A1594230A128A15003083160313A000D6
:101C7E000030A1000A128A1594230A128A15003028
:101C8E0083160313A0000030A1000A128A159423B4
:101C9E000A128A15003083160313A0000030A1002B
:101CAE000A128A1594230A128A1501308316031319
:101CBE00A0000030A1000A128A1594230A128A1578
:101CCE00013083160313A0000030A1000A128A15FA
:101CDE0094230800F21F982E0030F6000030F70013
:101CEE008030F8007009F9007109FA007209FB00E2
:101CFE00F90A0319FA0A0319FB0A7908F6077A0892
:101D0E0003187A0F8B2E8C2EF7077B0803187B0F88
:101D1E00912E922EF8077608F0007708F1007808D9
:101D2E00F200F51FBF2E0030F6000030F7008030B5
:101D3E00F8007309F9007409FA007509FB00F90A35
:101D4E000319FA0A0319FB0A7908F6077A08031829
:101D5E007A0FB22EB32EF7077B0803187B0FB82E1F
:101D6E00B92EF8077608F3007708F4007808F50026
:101D7E008030F2068030F50675087202031D0800E9
:101D8E0074087102031D0800730870020800003009
:101D9E00FC000030FB000030FA000030F900730840
:101DAE007204710470040319232FFD01FD0AF31B45
:101DBE00EE2E0130F8000310F00DF10DF20DF30DC3
:101DCE00F80BE22E0130F8007808FD07DE2E013008
:101DDE00F8000310F90DFA0DFB0DFC0DF80BF02EAB
:101DEE0073087702031D052F72087602031D052F57
:101DFE0071087502031D052F70087402031C162F3F
:101E0E007008F4027108031C710FF5027208031CAE
:101E1E00720FF6027308031C730FF7027914013068
:101E2E000310F30CF20CF10CF00CFF3E031D172FF8
:101E3E000130FD02031DEE2E7C08F3007B08F2003C
:101E4E007A08F1007908F000080073080319342F9E
:101E5E00720871047004031D472F0030F00000302B
:101E6E00F1000030F20008000130F5007508F307AC
:101E7E0001300310F20CF10CF00CFF3E031D402F4D
:101E8E00FE3072050319622F3B2F0130F5007508E5
:101E9E00F3070130F007003003180130F10700306E
:101EAE0003180130F20701300310F20CF10CF00CA4
:101EBE00FF3E031D5B2FFF3072050319712F4C2F50
:101ECE000130F30201300310F00DF10DF20DFF3E63
:101EDE00031D6A2FF11F672F73187B2FFF30F0053C
:101EEE007F30F105FF30F2050310F30C7308F50097
:101EFE00F601F70110300310F50DF60DF70DFF3E4C
:101F0E00031D822F7508F0047608F1047708F20499
:101F1E00740803190800F217080083120313A600B1
:101F2E000930A7000030A800A81B080002302706C1
:101F3E0028040319A72F063027062804031DB22FE5
:101F4E002E30A40027082607A500250884002408A3
:101F5E0083138000F92F0030F3000030F2000030C0
:101F6E00F1000A30F0002308F7002208F6002108DD
:101F7E00F5002008F4000A128A1579250A128A152E
:101F8E007008013E84000A128A150A200A128A1568
:101F9E0083120313A40027082607A5002508840032
:101FAE002408831380000030F3000030F20000306C
:101FBE00F1000A30F0002308F7002208F60021088D
:101FCE00F5002008F4000A128A15CE260A128A1588
:101FDE00730883120313A3007208A2007108A100F4
:101FEE007008A000FF30A7070318A80AFF30A80743
:021FFE009B2F17
:02400E0072FE40
:00000001FF
